{
  "contractName": "PrivateTransaction",
  "abi": [
    {
      "inputs": [
        {
          "internalType": "address",
          "name": "_verifierAddress",
          "type": "address"
        }
      ],
      "stateMutability": "nonpayable",
      "type": "constructor"
    },
    {
      "inputs": [
        {
          "internalType": "uint256[2]",
          "name": "a",
          "type": "uint256[2]"
        },
        {
          "internalType": "uint256[2][2]",
          "name": "b",
          "type": "uint256[2][2]"
        },
        {
          "internalType": "uint256[2]",
          "name": "c",
          "type": "uint256[2]"
        },
        {
          "internalType": "uint256[1]",
          "name": "input",
          "type": "uint256[1]"
        }
      ],
      "name": "performPrivateTransaction",
      "outputs": [
        {
          "internalType": "bool",
          "name": "",
          "type": "bool"
        }
      ],
      "stateMutability": "view",
      "type": "function",
      "constant": true
    }
  ],
  "bytecode": "0x608060405234801561001057600080fd5b50604051610c09380380610c098339818101604052810190610032919061008d565b806000806101000a81548173ffffffffffffffffffffffffffffffffffffffff021916908373ffffffffffffffffffffffffffffffffffffffff160217905550506100ff565b600081519050610087816100e8565b92915050565b60006020828403121561009f57600080fd5b60006100ad84828501610078565b91505092915050565b60006100c1826100c8565b9050919050565b600073ffffffffffffffffffffffffffffffffffffffff82169050919050565b6100f1816100b6565b81146100fc57600080fd5b50565b610afb8061010e6000396000f3fe608060405234801561001057600080fd5b506004361061002b5760003560e01c80634e4a43a314610030575b600080fd5b61004a6004803603810190610045919061068b565b610060565b60405161005791906108de565b60405180910390f35b60008060405180606001604052806040518060400160405280896000600281106100b3577f4e487b7100000000000000000000000000000000000000000000000000000000600052603260045260246000fd5b60200201518152602001896001600281106100f7577f4e487b7100000000000000000000000000000000000000000000000000000000600052603260045260246000fd5b60200201518152508152602001604051806040016040528060405180604001604052808a600060028110610154577f4e487b7100000000000000000000000000000000000000000000000000000000600052603260045260246000fd5b6020020151600060028110610192577f4e487b7100000000000000000000000000000000000000000000000000000000600052603260045260246000fd5b602002015181526020018a6000600281106101d6577f4e487b7100000000000000000000000000000000000000000000000000000000600052603260045260246000fd5b6020020151600160028110610214577f4e487b7100000000000000000000000000000000000000000000000000000000600052603260045260246000fd5b6020020151815250815260200160405180604001604052808a600160028110610266577f4e487b7100000000000000000000000000000000000000000000000000000000600052603260045260246000fd5b60200201516000600281106102a4577f4e487b7100000000000000000000000000000000000000000000000000000000600052603260045260246000fd5b602002015181526020018a6001600281106102e8577f4e487b7100000000000000000000000000000000000000000000000000000000600052603260045260246000fd5b6020020151600160028110610326577f4e487b7100000000000000000000000000000000000000000000000000000000600052603260045260246000fd5b6020020151815250815250815260200160405180604001604052808760006002811061037b577f4e487b7100000000000000000000000000000000000000000000000000000000600052603260045260246000fd5b60200201518152602001876001600281106103bf577f4e487b7100000000000000000000000000000000000000000000000000000000600052603260045260246000fd5b6020020151815250815250905060008054906101000a900473ffffffffffffffffffffffffffffffffffffffff1673ffffffffffffffffffffffffffffffffffffffff1663f48d772982856040518363ffffffff1660e01b8152600401610427929190610919565b60206040518083038186803b15801561043f57600080fd5b505afa158015610453573d6000803e3d6000fd5b505050506040513d601f19601f8201168201806040525081019061047791906106f0565b6104b6576040517f08c379a00000000000000000000000000000000000000000000000000000000081526004016104ad906108f9565b60405180910390fd5b6001915050949350505050565b60006104d66104d184610975565b610944565b905080828560408602820111156104ec57600080fd5b60005b8581101561051c5781610502888261063a565b8452602084019350604083019250506001810190506104ef565b5050509392505050565b60006105396105348461099b565b610944565b9050808285602086028201111561054f57600080fd5b60005b8581101561057f57816105658882610676565b845260208401935060208301925050600181019050610552565b5050509392505050565b600061059c610597846109c1565b610944565b905080828560208602820111156105b257600080fd5b60005b858110156105e257816105c88882610676565b8452602084019350602083019250506001810190506105b5565b5050509392505050565b600082601f8301126105fd57600080fd5b600261060a8482856104c3565b91505092915050565b600082601f83011261062457600080fd5b6001610631848285610526565b91505092915050565b600082601f83011261064b57600080fd5b6002610658848285610589565b91505092915050565b60008151905061067081610a97565b92915050565b60008135905061068581610aae565b92915050565b60008060008061012085870312156106a257600080fd5b60006106b08782880161063a565b94505060406106c1878288016105ec565b93505060c06106d28782880161063a565b9250506101006106e487828801610613565b91505092959194509250565b60006020828403121561070257600080fd5b600061071084828501610661565b91505092915050565b600061072583836108cf565b60208301905092915050565b61073a816109fb565b6107448184610a2b565b925061074f826109e7565b8060005b838110156107805781516107678782610719565b965061077283610a11565b925050600181019050610753565b505050505050565b61079181610a06565b61079b8184610a36565b92506107a6826109f1565b8060005b838110156107d75781516107be8782610719565b96506107c983610a1e565b9250506001810190506107aa565b505050505050565b6107e881610a52565b82525050565b60006107fb600d83610a41565b91507f496e76616c69642070726f6f66000000000000000000000000000000000000006000830152602082019050919050565b60408201600082015161084460008501826108cf565b50602082015161085760208501826108cf565b50505050565b6080820160008201516108736000850182610788565b5060208201516108866040850182610788565b50505050565b610100820160008201516108a3600085018261082e565b5060208201516108b6604085018261085d565b5060408201516108c960c085018261082e565b50505050565b6108d881610a5e565b82525050565b60006020820190506108f360008301846107df565b92915050565b60006020820190508181036000830152610912816107ee565b9050919050565b60006101208201905061092f600083018561088c565b61093d610100830184610731565b9392505050565b6000604051905081810181811067ffffffffffffffff8211171561096b5761096a610a68565b5b8060405250919050565b600067ffffffffffffffff8211156109905761098f610a68565b5b602082029050919050565b600067ffffffffffffffff8211156109b6576109b5610a68565b5b602082029050919050565b600067ffffffffffffffff8211156109dc576109db610a68565b5b602082029050919050565b6000819050919050565b6000819050919050565b600060019050919050565b600060029050919050565b6000602082019050919050565b6000602082019050919050565b600081905092915050565b600081905092915050565b600082825260208201905092915050565b60008115159050919050565b6000819050919050565b7f4e487b7100000000000000000000000000000000000000000000000000000000600052604160045260246000fd5b610aa081610a52565b8114610aab57600080fd5b50565b610ab781610a5e565b8114610ac257600080fd5b5056fea2646970667358221220b92bb8491d8c7ca7ed9d0accef6de619421170ac6ede529a8b1163ceb5f2abb564736f6c63430008000033",
  "immutableReferences": {},
  "source": "// SPDX-License-Identifier: MIT\r\npragma solidity ^0.8.0;\r\n\r\nimport \"./verifier.sol\";\r\n\r\ncontract PrivateTransaction {\r\n    Verifier verifier;\r\n\r\n    constructor(address _verifierAddress) {\r\n        verifier = Verifier(_verifierAddress);\r\n    }\r\n\r\n    function performPrivateTransaction(\r\n        uint[2] memory a,\r\n        uint[2][2] memory b,\r\n        uint[2] memory c,\r\n        uint256[1] memory input\r\n    ) public view returns (bool) { // Added 'view' keyword here\r\n        Verifier.Proof memory proofStruct = Verifier.Proof({\r\n            a: Pairing.G1Point(a[0], a[1]),\r\n            b: Pairing.G2Point([b[0][0], b[0][1]], [b[1][0], b[1][1]]),\r\n            c: Pairing.G1Point(c[0], c[1])\r\n        });\r\n\r\n        require(verifier.verifyTx(proofStruct, input), \"Invalid proof\");\r\n        // Implement your private transaction logic here\r\n        return true;\r\n    }\r\n}\r\n",
  "sourcePath": "C:\\Users\\Velin\\diplomna\\zk-snarks-private-transactions\\contracts\\PrivateTransaction.sol",
  "compiler": {
    "name": "solc",
    "version": "0.8.0+commit.c7dfd78e.Emscripten.clang"
  },
  "schemaVersion": "3.4.16",
  "updatedAt": "2024-05-22T23:13:18.033Z",
  "networkType": "ethereum",
  "devdoc": {
    "kind": "dev",
    "methods": {},
    "version": 1
  },
  "userdoc": {
    "kind": "user",
    "methods": {},
    "version": 1
  }
}